:10000000B8C00000D2C00000D0C00000CEC00000C8
:10001000CCC00000CAC00000C8C00000C6C00000BC
:10002000C4C00000C2C00000C0C000000C949F0DFE
:10003000BCC00000BAC00000B8C00000B6C00000DC
:10004000B4C00000B2C00000B0C00000AEC00000EC
:10005000ACC00000AAC00000A8C00000A6C00000FC
:10006000A4C00000A2C00000A0C000009EC000000C
:100070009CC000009AC0000098C0000096C000001C
:1000800094C0000092C0000090C000008EC000002C
:100090008CC000008AC0000005010905A1011500FF
:1000A0002501350045017501951005091901291033
:1000B000810205012507463B017504950165140978
:1000C00039814265009501810126FF0046FF000944
:1000D000300931093209357508950481020600FF9F
:1000E0000920950181020A212695089102C012017A
:1000F0000002000000400D0F92000001010200010B
:100100000902290001010080FA090400000203002D
:1001100000000921110100012256000705020340D9
:10012000000507058103400005040309041C03487A
:10013000004F0052004900200043004F002E002CC9
:10014000004C00540044002E000000240350004FD7
:10015000004B004B0045004E00200043004F004E76
:1001600000540052004F004C004C0045005200006B
:10017000000011241FBECFEFD2E0DEBFCDBF12E0E2
:10018000A0E0B1E0EEE9FFE102C005900D92A233DC
:10019000B107D9F712E0A2E3B2E001C01D92AE357B
:1001A000B107E1F7A2D50C94CD0F2ACF0895089599
:1001B0000895DF93CF9300D00F92CDB7DEB7FC0147
:1001C00049835A836B83242F48E0DF01842F1D92DB
:1001D0008A95E9F730E83383348335833683428365
:1001E00080913202909133021816190674F4DF01DF
:1001F000E7E4F2E088E001900D928150E1F7809110
:100200003202909133020197A5C08091460282305C
:10021000D1F0833030F48823A1F0813009F091C00F
:1002200009C0843009F48AC0843078F0853009F040
:1002300088C094C01182108233833483358336831F
:10024000428382E07CC083E07AC0283009F444C055
:10025000293098F4233051F1243028F4213021F151
:10026000223030F51FC02530D9F1253020F126305D
:10027000D9F1273009F051C02BC02D30F9F02E30C4
:1002800040F42A30D1F12A3098F12B3009F045C0E2
:1002900033C02F30D1F12F30A8F02031D1F12131EE
:1002A000E1F52FC0148240C0148205C013823CC007
:1002B0008FEF848339C08FEF838336C08081918133
:1002C000926003C0808191819160918380832CC072
:1002D000808191818460F9CF808191818260F5CFA6
:1002E000808191818860F1CF808191818160EDCFA3
:1002F000808191818061E9CF1482808191818062C7
:10030000E4CF808191819061E0CF80819181806391
:10031000DCCF13828FEF858307C080E883838483DB
:100320008583868388E0828380913A0290913B02A4
:10033000019690933B0280933A0203C085E080933C
:100340004602A7E4B2E088E001900D928150E1F707
:1003500082E090E090933302809332020F900F90EE
:100360000F90CF91DF910895FF920F931F93DF932A
:10037000CF93CDB7DEB72B970FB6F894DEBF0FBE85
:10038000CDBF69877A878B87809155028430E1F5EC
:1003900082E08093E9008091E80082FF15C080919F
:1003A000E80085FF0CC08E010F5F1F4FC80167E09A
:1003B00070E040E050E00E94280C8823B9F780915B
:1003C000E8008B778093E80081E08093E9008091DA
:1003D000E80080FF19C08E010F5F1F4FC8014985DB
:1003E0005A856B85E6DEF02E012F8F2D902F68E069
:1003F00070E040E050E00E947A0C8823B1F78091D1
:10040000E8008E778093E8002B960FB6F894DEBF55
:100410000FBECDBFCF91DF911F910F91FF90089537
:1004200082E060EC42E30E94CC0C81E061EC42E3AC
:100430000C94CC0C84B7877F84BF88E10FB6F89406
:1004400080936000109260000FBEE1E6F0E080E86B
:10045000808310820C94900D0F931F93DF93CF93A2
:1004600000D00F92CDB7DEB769837A838B830A8180
:100470001B8110923B0210923A0208C0702F1B831E
:100480000A8369818B8170DF0E94B80F80913A02E4
:1004900090913B028017910788F30F900F900F9077
:1004A000CF91DF911F910F9108950F931F9360914A
:1004B0002D0170912E0180912F01CEDF00E311E01C
:1004C000609130017091310180913201C5DFF801F6
:1004D00033966091330171818281BEDFF8013696D7
:1004E0006091360171818281B7DFF80139966091A0
:1004F000390171818281B0DFF8013C9660913C0145
:1005000071818281A9DFF8013F9660913F0171817D
:100510008281A2DFF801729660914201718182812D
:100520009BDFF8017596609145017181828194DFAE
:10053000F801789660914801718182818DDFF80120
:100540007B9660914B017181828186DF025E1F4F35
:1005500060914E01F801718182817EDF1F910F91C0
:1005600008950F931F9360915A0170915B018091E0
:100570005C0172DF0DE511E060915D0170915E013B
:1005800080915F0169DFF8013396609160017181AC
:10059000828162DFF8013696609163017181828108
:1005A0005BDFF8013996609166017181828154DFC9
:1005B000F8013C9660916901718182814DDFF801FB
:1005C0003F9660916C017181828146DFF8017296DD
:1005D00060916F01718182813FDFF80175966091B2
:1005E00072017181828138DF085E1F4F6091750151
:1005F000F8017181828130DF1F910F9108958F92F0
:100600009F92AF92BF92CF92DF92EF92FF920F93A1
:100610001F93DF93CF93CDB7DEB729970FB6F8942A
:10062000DEBF0FBECDBF4C019CDFDE011196E7E5BA
:10063000F1E083E001900D928150E1F769817A81C8
:100640008B810ADF6091090170910A0180910B0191
:1006500003DF609115017091160180911701FCDE96
:10066000609118017091190180911A01F5DE609175
:1006700021017091220180912301EEDE609124011D
:100680007091250180912601E7DE0FDF00E010E088
:10069000A0901B01B0901C01C0901D01D0901E01C4
:1006A000E0901F01F090200109C0B5018C2DD4DE2F
:1006B0006D2D7E2D8F2DD0DE0F5F1F4F0815190574
:1006C000A4F3DE011496E4E5F1E083E001900D92DD
:1006D0008150E1F7DE011796E1E5F1E083E001905A
:1006E0000D928150E1F76C817D818E81B5DE6F8145
:1006F00078858985B1DE60912D0170912E01809100
:100700002F01AADE60913001709131018091320198
:10071000A3DE60911B0170911C0180911D019CDE84
:1007200060911E0170911F018091200195DE299634
:100730000FB6F894DEBF0FBECDBFCF91DF911F91F2
:100740000F91FF90EF90DF90CF90BF90AF909F9070
:100750008F9008952F923F924F925F926F927F9267
:100760008F929F92AF92BF92CF92DF92EF92FF92C1
:100770000F931F93DF93CF93CDB7DEB763970FB679
:10078000F894DEBF0FBECDBFAA24BB2480911B010D
:10079000888B80911C01898B80911D018A8B8091AF
:1007A0001E018B8B2E010894411C511C3DE0632ED1
:1007B000712C6C0E7D1E2AE0222E312C2C0E3D1E3B
:1007C000D0DEA114B10409F464C0609115017091E8
:1007D00016018091170140DE609118017091190196
:1007E00080911A0139DE609121017091220180917E
:1007F000230132DE60912401709125018091260150
:100800002BDE53DE00E010E0E0901F01F0902001AD
:10081000688979898A8920DE6B897E2D8F2D1CDE7F
:100820000F5F1F4F0A151B059CF3D201E9E9F1E0A8
:1008300083E001900D928150E1F7D301E6E9F1E008
:1008400083E001900D928150E1F769817A818B817B
:1008500003DE6D857E858F85FFDD60912D017091B2
:100860002E0180912F01F8DD6091300170913101EE
:1008700080913201F1DD60911B0170911C0180912A
:100880001D01EADD60911E0170911F018091200120
:10089000E3DD0BDE00E010E0809015019090160182
:1008A000C0901701D0901801E0901901F0901A0142
:1008B000B4018C2DD1DD6D2D7E2D8F2DCDDD0F5F03
:1008C0001F4FA016B106A4F760912101709122017B
:1008D00080912301C1DD60912401709125018091F7
:1008E0002601BADD609127017091280180912901CC
:1008F000B3DD60912A0170912B0180912C01ACDD58
:1009000000E010E0D301E3E9F1E083E001900D9213
:100910008150E1F76D857E858F859EDDD201E0E90E
:10092000F1E083E001900D928150E1F769817A81D5
:100930008B8192DD0F5F1F4F0231110519F7609116
:1009400078017091790180917A0186DDEE24FF248F
:1009500030C0D201EDE8F1E083E001900D928150CA
:10096000E1F769817A818B8177DDD301EAE8F1E0F3
:1009700083E001900D928150E1F76D857E858F8532
:100980006BDD0F5F1F4F0532110519F7D101E7E845
:10099000F1E083E001900D928150E1F76A857B855B
:1009A0008C855ADD0894E11CF11C85E0E816F10401
:1009B00019F000E010E0CDCF0894A11CB11C86E036
:1009C000A816B10409F0FCCECCDD60911501709140
:1009D00016018091170140DD609118017091190195
:1009E00080911A0139DD609121017091220180917D
:1009F000230132DD6091240170912501809126014F
:100A00002BDD53DD00E010E0A0901B01C0901C0125
:100A1000B0901D01D0901E01E0901F01F0902001C8
:100A20006A2D7C2D8B2D18DD6D2D7E2D8F2D14DDE7
:100A30000F5F1F4F0630110599F7DE011496E4E8A9
:100A4000F1E083E001900D928150E1F7DE0117960D
:100A5000E1E8F1E083E001900D928150E1F76C81D3
:100A60007D818E81F9DC6F8178858985F5DC6091E7
:100A70002D0170912E0180912F01EEDC60913001EB
:100A80007091310180913201E7DC6C817D818E8132
:100A9000E3DC6F8178858985DFDC60911B017091D3
:100AA0001C0180911D01D8DC60911E0170911F0115
:100AB00080912001D1DC00E010E09AE0C92ED12C19
:100AC000CC0EDD1E8DE0E82EF12CEC0EFD1ED601C5
:100AD000EEE7F1E083E001900D928150E1F76A8545
:100AE0007B858C85B9DCD701EBE7F1E083E00190F1
:100AF0000D928150E1F76D857E858F85ADDC0F5FAE
:100B00001F4F0431110519F763960FB6F894DEBF35
:100B10000FBECDBFCF91DF911F910F91FF90EF904E
:100B2000DF90CF90BF90AF909F908F907F906F900D
:100B30005F904F903F902F9008952F923F924F9249
:100B40005F926F927F928F929F92AF92BF92CF925D
:100B5000DF92EF92FF920F931F93DF93CF93CDB766
:100B6000DEB766970FB6F894DEBF0FBECDBF00E0CC
:100B700010E080919C018B8B80919D018C8B8091EA
:100B80009E018D8B80919F018E8B2090A0013090D3
:100B9000A1014090A2015090A3016090A401709027
:100BA000A5018090A6019090A701A090A801B09007
:100BB000A901C090AA01D090AB01E090AC01F090E7
:100BC000AD016B897C898D8947DC6E89722D832DFF
:100BD00043DCB201862D40DC672D782D892D3CDC6D
:100BE000B5018C2D39DC6D2D7E2D8F2D35DC0F5F01
:100BF0001F4F0330110529F7DE011196EDEBF1E0EF
:100C000083E001900D928150E1F769817A818B81B7
:100C100023DCDE011496EAEBF1E083E001900D9213
:100C20008150E1F76C817D818E8116DCDE011796A3
:100C3000E7EBF1E083E001900D928150E1F76F81E5
:100C40007885898509DCDE011A96E4EBF1E083E022
:100C500001900D928150E1F76A857B858C85FCDBE4
:100C600000E010E05DE0C52ED12CCC0EDD1E40E191
:100C7000E42EF12CEC0EFD1ED601E1EBF1E083E059
:100C800001900D928150E1F76D857E858F85E4DBC3
:100C9000D701EEEAF1E083E001900D928150E1F797
:100CA000688979898A89D8DB0F5F1F4F0D3011055C
:100CB00019F784E08093450266960FB6F894DEBF7C
:100CC0000FBECDBFCF91DF911F910F91FF90EF909D
:100CD000DF90CF90BF90AF909F908F907F906F905C
:100CE0005F904F903F902F9008952F923F924F9298
:100CF0005F926F927F928F929F92AF92BF92CF92AC
:100D0000DF92EF92FF920F931F93DF93CF93CDB7B4
:100D1000DEB7A7970FB6F894DEBF0FBECDBF8ADB54
:100D20007894DE011A96EFE2F2E083E001900D92F2
:100D30008150E1F76A857B858C858EDBDE01179615
:100D4000ECE2F2E083E001900D928150E1F76F81D7
:100D50007885898581DBDE011496E9E2F2E083E0A3
:100D600001900D928150E1F76C817D818E8174DB61
:100D700080914502882369F4DE011196E6E2F2E0F3
:100D800083E001900D928150E1F769817A818B8136
:100D900063DB80914502882369F400E010E003C022
:100DA000CCDE0F5F1F4F8091020190910301081765
:100DB0001907B4F380914502843009F009C16091AC
:100DC000C9017091CA018091CB0146DB609142015B
:100DD00070914301809144013FDB6091C3017091A8
:100DE000C4018091C50138DB60911201709113013B
:100DF0008091140131DB6091120170911301809197
:100E000014012ADB60910C0170910D0180910E019B
:100E100023DBDE011196E3E2F2E083E001900D9224
:100E20008150E1F769817A818B8116DB609109013C
:100E300070910A0180910B010FDBDE011496E0E254
:100E4000F2E083E001900D928150E1F76C817D81A9
:100E50008E8102DB6091C3017091C4018091C50154
:100E6000FBDA60910F017091100180911101F4DAA9
:100E70006091C3017091C4018091C501EDDA609168
:100E800012017091130180911401E6DA6091120150
:100E90007091130180911401DFDA60911201709159
:100EA000130180911401D8DADE011796EDE1F2E02A
:100EB00083E001900D928150E1F76F8178858985FB
:100EC000CBDA6091090170910A0180910B01C4DABB
:100ED000DE011A96EAE1F2E083E001900D92815082
:100EE000E1F76A857B858C85B7DADE011D96E7E13F
:100EF000F2E083E001900D928150E1F76D857E85EF
:100F00008F85AADA6091C9017091CA018091CB01E5
:100F1000A3DA6091420170914301809144019CDA0F
:100F20006091CF017091D0018091D10195DA6091EB
:100F3000D2017091D3018091D4018EDA6091C60103
:100F40007091C7018091C80187DA60910C0170919E
:100F50000D0180910E0180DA81E090E050DBDE012E
:100F60005096E4E1F2E083E001900D928150E1F7C8
:100F7000688979898A8970DA00E010E076E1C72E05
:100F8000D12CCC0EDD1E63E1E62EF12CEC0EFD1E05
:100F9000D601E1E1F2E083E001900D928150E1F7AA
:100FA0006E897F89888D58DAD701EEE0F2E083E020
:100FB00001900D928150E1F76B897C898D894CDA23
:100FC0000F5F1F4F0231110519F781E08093450231
:100FD00080914502813041F400E010E0BBDB0F5FFF
:100FE0001F4F0B301105D1F780914502823009F077
:100FF0003AC1CC24DD248091DB018C8F8091DC010F
:101000008D8F8091DD018E8F8091DE018F8F809199
:10101000DF0188A38091E00189A38091E1018AA387
:101020008091E2018BA38091E3018CA38091E40184
:101030008DA38091E5018EA38091E6018FA30BC162
:1010400080914402882369F560915A0170915B0197
:1010500080915C0101DA60915D0170915E01809187
:101060005F01FAD960916001709161018091620124
:10107000F3D9609163017091640180916501ECD9AD
:10108000609166017091670180916801E5D9609176
:10109000690170916A0180916B01DED981E08093D2
:1010A0004402EE24FF248091E701898F8091E801BA
:1010B0008A8F8091E9018B8F2090EA013090EB01BB
:1010C0004090EC015090ED016090EE017090EF01C6
:1010D0008090F0019090F101A090F201B090F301A6
:1010E0008CC06C8D7D8D8E8DB7D96F8D78A189A1C7
:1010F000B3D96AA17BA18CA1AFD96DA17EA18FA12B
:10110000ABD9698D7A8D8B8DA7D9B101842DA4D9E6
:10111000652D762D872DA0D9B4018A2D9DD96B2DF3
:101120007091F4018091F50197D96091F601709169
:10113000F7018091F80190D96091F9017091FA015D
:101140008091FB0189D96091FC017091FD01809132
:10115000FE0182D96091FF0170910002809101022D
:101160007BD960910202709103028091040274D9CC
:101170006091210170912201809123016DD96091CC
:101180002401709125018091260166D90F5F1F4FC0
:101190000530110509F0A5CF609121017091220160
:1011A0008091230159D9609124017091250180918A
:1011B000260152D960912101709122018091230171
:1011C0004BD960912401709125018091260144D969
:1011D00060911B0170911C0180911D013DD96091AE
:1011E0001E0170911F018091200136D90894E11CE5
:1011F000F11C86E0E816F10419F000E010E071CF70
:10120000DE015396EBE0F2E083E001900D92815015
:10121000E1F7DE015696E8E0F2E083E001900D92FE
:101220008150E1F760911B0170911C0180911D01BB
:1012300013D960911E0170911F01809120010CD97A
:101240006B897C898D8908D96E897F89888D04D9BD
:101250000894C11CD11C8091040190910501C8160D
:10126000D9060CF4EDCE80914502833009F0CCC153
:101270006091C3017091C4018091C501EDD8609166
:101280000C0170910D0180910E01E6D86091C301AF
:101290007091C4018091C501DFD8609112017091F5
:1012A000130180911401D8D86091090170910A014D
:1012B00080910B01D1D86091C3017091C4018091DC
:1012C000C501CAD860911201709113018091140177
:1012D000C3D8609112017091130180911401BCD8A0
:1012E00060910F017091100180911101B5D860914A
:1012F000C0017091C1018091C201AED860910C0112
:1013000070910D0180910E01A7D86091D501709167
:10131000D6018091D701A0D86091D2017091D301FC
:101320008091D40199D86091D2017091D3018091BC
:10133000D40192D86091D2017091D3018091D401EF
:101340008BD86091D2017091D3018091D40184D85F
:101350006091C3017091C4018091C5017DD86091F5
:101360000C0170910D0180910E0176D8DE01569628
:10137000E5E0F2E083E001900D928150E1F76E89A3
:101380007F89888D69D86091C3017091C401809173
:10139000C50162D86091D5017091D6018091D701C5
:1013A0005BD860910601709107018091080154D8C3
:1013B0006091D5017091D6018091D7014DD860918F
:1013C0000601709107018091080146D86091D5010E
:1013D0007091D6018091D7013FD86091060170913C
:1013E00007018091080138D86091D5017091D6012C
:1013F0008091D70131D86091090170910A018091E3
:101400000B012AD86091C3017091C4018091C5017C
:1014100023D860910C0170910D0180910E011CD8B0
:101420006091D5017091D6018091D70115D8609156
:10143000090170910A0180910B010ED86091D501CC
:101440007091D6018091D70107D860910901709100
:101450000A0180910B0100D86091C3017091C40111
:101460008091C5010E942C026091090170910A01CE
:1014700080910B010E942C026091D2017091D301E6
:101480008091D4010E942C026091CF017091D00113
:101490008091D1010E942C026091D2017091D30100
:1014A0008091D4010E942C026091D2017091D301ED
:1014B0008091D4010E942C026091D2017091D301DD
:1014C0008091D4010E942C026091D2017091D301CD
:1014D0008091D4010E942C026091D2017091D301BD
:1014E0008091D4010E942C026091C3017091C401CB
:1014F0008091C5010E942C0260910C0170910D0138
:1015000080910E010E942C026091C0017091C10176
:101510008091C2010E942C0260910F017091100114
:10152000809111010E942C026091C0017091C10153
:101530008091C2010E942C0260910F0170911001F4
:10154000809111010E942C026091C6017091C70127
:101550008091C8010E942C026091120170911301C8
:10156000809114010E942C0260910F017091100172
:10157000809111010E942C026091C3017091C401FD
:101580008091C5010E942C0260910F0170911001A1
:10159000809111010E942C0260911201709113013F
:1015A000809114010E942C0260911201709113012C
:1015B000809114010E942C0260911201709113011C
:1015C000809114010E942C0260911201709113010C
:1015D000809114010E942C026091120170911301FC
:1015E000809114010E942C026091120170911301EC
:1015F000809114010E942C026091120170911301DC
:10160000809114010E942C0280E090E0A7960FB612
:10161000F894DEBF0FBECDBFCF91DF911F910F9128
:10162000FF90EF90DF90CF90BF90AF909F908F9002
:101630007F906F905F904F903F902F900895DA01C8
:101640009330B1F0943028F4913041F0923079F534
:101650000AC0913211F1923251F524C0EEEEF0E061
:1016600022E130E028C0E0E0F1E029E230E023C0F0
:10167000813049F0813018F08230C9F40AC0E9E2C3
:10168000F1E0849103C0EDE2F1E08491282F30E095
:1016900012C0EBE4F1E08491F9CFE2E1F1E029E05E
:1016A00030E009C0E8E9F0E026E530E004C0E0E021
:1016B000F0E020E030E0ED93FC93C90108959C0137
:1016C00040915C0250915D024617570718F4F901EA
:1016D00090E03DC06115710511F0AB01F8CF80912C
:1016E000E8008E778093E80040E050E0F0CF8091F2
:1016F0005502882309F441C0853009F440C0809127
:10170000E80083FD3EC08091E80082FD30C08091FA
:10171000E80080FF1CC08091F200282F30E007C055
:1017200081918093F100415050402F5F3F4F411510
:10173000510519F02034310598F390E0203431053B
:1017400009F491E08091E8008E778093E8004115DC
:10175000510569F6992359F60AC0809155028823EC
:1017600061F0853061F08091E80083FD0AC08091CE
:10177000E80082FFF2CF80E0089582E0089583E0E0
:10178000089581E008959C0140915C0250915D02B2
:101790004617570718F4F90190E03EC0611571052E
:1017A00011F0AB01F8CF8091E8008E778093E800CC
:1017B00040E050E0F0CF80915502882309F442C008
:1017C000853009F441C08091E80083FD3FC08091DD
:1017D000E80082FD31C08091E80080FF1DC080914B
:1017E000F200282F30E008C084918093F1003196F8
:1017F000415050402F5F3F4F4115510519F02034A3
:10180000310590F390E02034310509F491E08091A6
:10181000E8008E778093E8004115510561F6992321
:1018200051F60AC080915502882361F0853061F03D
:101830008091E80083FD0AC08091E80082FFF2CF2A
:1018400080E0089582E0089583E0089581E008959E
:10185000BF92CF92DF92EF92FF920F931F93CF939D
:10186000DF93182F092F7B016A01EFD0B82E882350
:10187000B1F5812F902F9C01E901C114D10439F0F9
:10188000F60180819181E81AF90AC80FD91F00E09A
:1018900010E022C08091E80085FD16C08091E8002C
:1018A0008B778093E80064D3C114D10449F0F6012A
:1018B00080819181800F911F9183808385E010C08A
:1018C000C4D0882349F00CC08091F100899308941A
:1018D000E108F1080F5F1F4FE114F104D9F68B2DD9
:1018E000DF91CF911F910F91FF90EF90DF90CF90FC
:1018F000BF900895BF92CF92DF92EF92FF920F9325
:101900001F93CF93DF93182F092F7B016A019DD07E
:10191000B82E8823B1F5812F902F9C01E901C114C5
:10192000D10439F0F60180819181E81AF90AC80FD3
:10193000D91F00E010E022C08091E80085FD16C0AC
:101940008091E8008E778093E80012D3C114D1040F
:1019500049F0F60180819181800F911F91838083EE
:1019600085E010C072D0882349F00CC08991809323
:10197000F1000894E108F1080F5F1F4FE114F10432
:10198000D9F68B2DDF91CF911F910F91FF90EF90A2
:10199000DF90CF90BF900895382F282F2EC0822F30
:1019A0008F708093E900231721F4762F942F50E055
:1019B00006C07091EC009091ED005091F00091FF05
:1019C0001BC08091EB008E7F8093EB008091ED0037
:1019D0008D7F8093ED008091EB0081608093EB0020
:1019E0007093EC009093ED005093F0008091EE0026
:1019F00087FD02C080E008952F5F253080F23F70A0
:101A00003093E90081E008958091560288239CF488
:101A100004C0809155028823B9F08091E80082FFCC
:101A2000F8CF8091E8008B778093E800089580914B
:101A30005502882349F08091E80080FFF8CF80911B
:101A4000E8008E778093E80008954091E40050917B
:101A5000E50024E68091EC0080FF24C08091E8003E
:101A600080FD1EC080915502882311F482E0089504
:101A7000853011F483E008958091EB0085FF02C06A
:101A800081E008958091E4009091E5008417950726
:101A900009F3222311F484E008952150AC01DACF38
:101AA00080E008958091E80082FFDCCFF9CF41D03B
:101AB00043D08091D8008F778093D8008091D80050
:101AC00080688093D8008091D8008F7D8093D80063
:101AD00084E089BD86E089BD09B400FEFDCF109287
:101AE000550210925102109253021092520280E05D
:101AF00060E042E351DF8091E1008E7F8093E1005E
:101B00008091E20081608093E2008091E200886031
:101B10008093E2008091E0008E7F8093E000089542
:101B2000E3E6F0E080818E7F808381E08093540241
:101B3000BECF1092E20008951092E10008951F9226
:101B40000F920FB60F9211242F933F934F935F93F1
:101B50006F937F938F939F93AF93BF93EF93FF9375
:101B60008091E10082FF0AC08091E20082FF06C0FE
:101B70008091E1008B7F8093E100F9D18091E100B9
:101B800080FF18C08091E20080FF14C08091E200C5
:101B90008E7F8093E2008091E20080618093E2007A
:101BA0008091D80080628093D80019BC10925502B1
:101BB0000E94D7008091E10084FF30C08091E20054
:101BC00084FF2CC084E089BD86E089BD09B400FE95
:101BD000FDCF8091D8008F7D8093D8008091E10067
:101BE0008F7E8093E1008091E2008F7E8093E200FF
:101BF0008091E20081608093E2008091510288230D
:101C000011F084E007C08091E30087FD02C081E00D
:101C100001C083E0809355020E94D6008091E100CC
:101C200083FF22C08091E20083FF1EC08091E1000B
:101C3000877F8093E10082E08093550210925102E9
:101C40008091E1008E7F8093E1008091E2008E7FA1
:101C50008093E2008091E20080618093E20080E066
:101C600060E042E399DE83D1FF91EF91BF91AF91A4
:101C70009F918F917F916F915F914F913F912F91A4
:101C80000F900FBE0F901F9018951F93DF93CF9367
:101C9000CDB7DEB7AC970FB6F894DEBF0FBECDBFA1
:101CA000E6E5F2E08091F100819322E0EE35F20763
:101CB000C9F70E94D8008091E80083FF40C180915D
:101CC000560230915702353009F48DC0363040F459
:101CD0003130E1F1313070F0333009F030C136C0CD
:101CE000383009F4FDC0393009F40CC1363009F040
:101CF00026C19CC0803821F0823809F020C108C07C
:101D000090915202809153028823B1F0926014C0E6
:101D100080915A028F70853008F011C18093E900DC
:101D20008091EB0090E025E0969587952A95E1F764
:101D3000982F91701092E9008091E800877F80933E
:101D4000E8009093F1001092F100D5C0882319F0BB
:101D5000823009F0F4C090E08F719070009721F00C
:101D6000029709F0ECC00CC080915802813009F054
:101D7000E6C010925302333081F5809353022DC098
:101D800080915802882349F520915A022F70822FA2
:101D90008150843008F0D3C02093E9008091EB009B
:101DA00080FF1BC0333021F48091EB00806213C0B0
:101DB0008091EB0080618093EB0081E090E002C0B5
:101DC000880F991F2A95E2F78093EA001092EA00A3
:101DD0008091EB0088608093EB001092E900809185
:101DE000E800877F8BC0882309F0A9C010915802B2
:101DF0001F778091E3008078812B8093E3008091AE
:101E0000E800877F8093E800FFDD8091E80080FF95
:101E1000FCCF8091E30080688093E300112311F4EC
:101E200082E001C083E08093550289C080588230EF
:101E300008F085C0809158029091590223E08C3DB2
:101E4000920709F033C083E08C838AE28B837FB7EB
:101E5000F894DE0115966EE040E050E011E2E62FC6
:101E6000F0E010935700849140FF03C082958F707B
:101E70006F5F8F70282F30E08A3018F0C901C79645
:101E800002C0C901C0968D939D934F5F5F4F44314F
:101E9000510529F77FBF8091E800877F8093E80094
:101EA000CE0103966AE270E00ADC14C060915A0227
:101EB00070915B02AE014F5F5F4FC1DBBC010097C9
:101EC00009F43DC08091E800877F8093E800898114
:101ED0009A8159DC8091E8008B778093E8002FC0CD
:101EE000803869F58091E800877F8093E8008091D1
:101EF00051028093F1008091E8008E778093E80092
:101F000083DD1DC08823D9F4909158029230B8F433
:101F10008091E800877F8093E8009093510274DD00
:101F200080915102882331F48091E30087FD02C043
:101F300081E001C084E0809355020E9410028091EC
:101F4000E80083FF0AC08091E800877F8093E80063
:101F50008091EB0080628093EB00AC960FB6F89412
:101F6000DEBF0FBECDBFCF91DF911F9108950895C1
:101F70001F9380915502882371F01091E9008091A0
:101F8000EC001092E9008091E80083FF01C07DDE43
:0E1F90001F701093E9001F910895F894FFCF81
:101F9E0002004A010D000C05000C0A000C14000C86
:101FAE001E000C28000305000C05000405000C059E
:101FBE00000205000C05000705000C0500070500D2
:101FCE000C05000205000C05000205000C050002C0
:101FDE0005000C05000205000C05000705000C05A8
:101FEE00000C05000005000905000505000C2D007C
:101FFE000705000C46000A05000C46000605000CFD
:10200E0005000605000C050010F00A0C0500080F6F
:10201E00000C05000005001014000C0500080F0050
:10202E000C0500080F000C05000005000350000C05
:10203E0005000446000C05000128000C0A000C05E2
:10204E0000080F000C32000705000C2800070500E1
:10205E00110500070500080500050500060500002E
:10206E0005000405000205000305000705000C0A23
:10207E00000005000C05000005000C05000705001A
:10208E000C28000005000C05000705000C41000798
:10209E0005000C28000250000C05000A05000C0576
:1020AE0000080F000A0500090500042C010D0500AB
:1020BE00040A00020600018C000732000C05000F16
:0220CE003200DE
:00000001FF
