:10000000B8C00000D2C00000D0C00000CEC00000C8
:10001000CCC00000CAC00000C8C00000C6C00000BC
:10002000C4C00000C2C00000C0C000000C949F0DFE
:10003000BCC00000BAC00000B8C00000B6C00000DC
:10004000B4C00000B2C00000B0C00000AEC00000EC
:10005000ACC00000AAC00000A8C00000A6C00000FC
:10006000A4C00000A2C00000A0C000009EC000000C
:100070009CC000009AC0000098C0000096C000001C
:1000800094C0000092C0000090C000008EC000002C
:100090008CC000008AC0000005010905A1011500FF
:1000A0002501350045017501951005091901291033
:1000B000810205012507463B017504950165140978
:1000C00039814265009501810126FF0046FF000944
:1000D000300931093209357508950481020600FF9F
:1000E0000920950181020A212695089102C012017A
:1000F0000002000000400D0F92000001010200010B
:100100000902290001010080FA090400000203002D
:1001100000000921110100012256000705020340D9
:10012000000507058103400005040309041C03487A
:10013000004F0052004900200043004F002E002CC9
:10014000004C00540044002E000000240350004FD7
:10015000004B004B0045004E00200043004F004E76
:1001600000540052004F004C004C0045005200006B
:10017000000011241FBECFEFD2E0DEBFCDBF12E0E2
:10018000A0E0B1E0EEE9FFE102C005900D92A433DA
:10019000B107D9F712E0A4E3B2E001C01D92AF3578
:1001A000B107E1F7A2D50C94CD0F2ACF0895089599
:1001B0000895DF93CF9300D00F92CDB7DEB7FC0147
:1001C00049835A836B83242F48E0DF01842F1D92DB
:1001D0008A95E9F730E83383348335833683428365
:1001E00080913402909135021816190674F4DF01DB
:1001F000E8E4F2E088E001900D928150E1F780910F
:100200003402909135020197A5C080914702823057
:10021000D1F0833030F48823A1F0813009F091C00F
:1002200009C0843009F48AC0843078F0853009F040
:1002300088C094C01182108233833483358336831F
:10024000428382E07CC083E07AC0283009F444C055
:10025000293098F4233051F1243028F4213021F151
:10026000223030F51FC02530D9F1253020F126305D
:10027000D9F1273009F051C02BC02D30F9F02E30C4
:1002800040F42A30D1F12A3098F12B3009F045C0E2
:1002900033C02F30D1F12F30A8F02031D1F12131EE
:1002A000E1F52FC0148240C0148205C013823CC007
:1002B0008FEF848339C08FEF838336C08081918133
:1002C000926003C0808191819160918380832CC072
:1002D000808191818460F9CF808191818260F5CFA6
:1002E000808191818860F1CF808191818160EDCFA3
:1002F000808191818061E9CF1482808191818062C7
:10030000E4CF808191819061E0CF80819181806391
:10031000DCCF13828FEF858307C080E883838483DB
:100320008583868388E0828380913C0290913D02A0
:10033000019690933D0280933C0203C085E0809338
:100340004702A8E4B2E088E001900D928150E1F705
:1003500082E090E090933502809334020F900F90EA
:100360000F90CF91DF910895FF920F931F93DF932A
:10037000CF93CDB7DEB72B970FB6F894DEBF0FBE85
:10038000CDBF69877A878B87809156028430E1F5EB
:1003900082E08093E9008091E80082FF15C080919F
:1003A000E80085FF0CC08E010F5F1F4FC80167E09A
:1003B00070E040E050E00E94280C8823B9F780915B
:1003C000E8008B778093E80081E08093E9008091DA
:1003D000E80080FF19C08E010F5F1F4FC8014985DB
:1003E0005A856B85E6DEF02E012F8F2D902F68E069
:1003F00070E040E050E00E947A0C8823B1F78091D1
:10040000E8008E778093E8002B960FB6F894DEBF55
:100410000FBECDBFCF91DF911F910F91FF90089537
:1004200082E060EC42E30E94CC0C81E061EC42E3AC
:100430000C94CC0C84B7877F84BF88E10FB6F89406
:1004400080936000109260000FBEE1E6F0E080E86B
:10045000808310820C94900D0F931F93DF93CF93A2
:1004600000D00F92CDB7DEB769837A838B830A8180
:100470001B8110923D0210923C0208C0702F1B831A
:100480000A8369818B8170DF0E94B80F80913C02E2
:1004900090913D028017910788F30F900F900F9075
:1004A000CF91DF911F910F9108950F931F9360914A
:1004B0002E0170912F0180913001CEDF01E311E018
:1004C000609131017091320180913301C5DFF801F3
:1004D00033966091340171818281BEDFF8013696D6
:1004E0006091370171818281B7DFF801399660919F
:1004F0003A0171818281B0DFF8013C9660913D0143
:1005000071818281A9DFF8013F966091400171817C
:100510008281A2DFF801729660914301718182812C
:100520009BDFF8017596609146017181828194DFAD
:10053000F801789660914901718182818DDFF8011F
:100540007B9660914C017181828186DF025E1F4F34
:1005500060914F01F801718182817EDF1F910F91BF
:1005600008950F931F9360915B0170915C018091DE
:100570005D0172DF0EE511E060915E0170915F0137
:100580008091600169DFF8013396609161017181AA
:10059000828162DFF8013696609164017181828107
:1005A0005BDFF8013996609167017181828154DFC8
:1005B000F8013C9660916A01718182814DDFF801FA
:1005C0003F9660916D017181828146DFF8017296DC
:1005D00060917001718182813FDFF80175966091B1
:1005E00073017181828138DF085E1F4F609176014F
:1005F000F8017181828130DF1F910F9108958F92F0
:100600009F92AF92BF92CF92DF92EF92FF920F93A1
:100610001F93DF93CF93CDB7DEB729970FB6F8942A
:10062000DEBF0FBECDBF4C019CDFDE011196E8E5B9
:10063000F1E083E001900D928150E1F769817A81C8
:100640008B810ADF60910A0170910B0180910C018E
:1006500003DF609116017091170180911801FCDE93
:100660006091190170911A0180911B01F5DE609172
:1006700022017091230180912401EEDE6091250119
:100680007091260180912701E7DE0FDF00E010E086
:10069000A0901C01B0901D01C0901E01D0901F01C0
:1006A000E0902001F090210109C0B5018C2DD4DE2D
:1006B0006D2D7E2D8F2DD0DE0F5F1F4F0815190574
:1006C000A4F3DE011496E5E5F1E083E001900D92DC
:1006D0008150E1F7DE011796E2E5F1E083E0019059
:1006E0000D928150E1F76C817D818E81B5DE6F8145
:1006F00078858985B1DE60912E0170912F018091FE
:100700003001AADE60913101709132018091330194
:10071000A3DE60911C0170911D0180911E019CDE81
:1007200060911F01709120018091210195DE299631
:100730000FB6F894DEBF0FBECDBFCF91DF911F91F2
:100740000F91FF90EF90DF90CF90BF90AF909F9070
:100750008F9008952F923F924F925F926F927F9267
:100760008F929F92AF92BF92CF92DF92EF92FF92C1
:100770000F931F93DF93CF93CDB7DEB763970FB679
:10078000F894DEBF0FBECDBFAA24BB2480911C010C
:10079000888B80911D01898B80911E018A8B8091AD
:1007A0001F018B8B2E010894411C511C3DE0632ED0
:1007B000712C6C0E7D1E2AE0222E312C2C0E3D1E3B
:1007C000D0DEA114B10409F464C0609116017091E7
:1007D00017018091180140DE6091190170911A0192
:1007E00080911B0139DE609122017091230180917B
:1007F000240132DE6091250170912601809127014C
:100800002BDE53DE00E010E0E0902001F0902101AB
:10081000688979898A8920DE6B897E2D8F2D1CDE7F
:100820000F5F1F4F0A151B059CF3D201EAE9F1E0A7
:1008300083E001900D928150E1F7D301E7E9F1E007
:1008400083E001900D928150E1F769817A818B817B
:1008500003DE6D857E858F85FFDD60912E017091B1
:100860002F0180913001F8DD6091310170913201EA
:1008700080913301F1DD60911C0170911D01809127
:100880001E01EADD60911F0170912001809121011C
:10089000E3DD0BDE00E010E0809016019090170180
:1008A000C0901801D0901901E0901A01F0901B013E
:1008B000B4018C2DD1DD6D2D7E2D8F2DCDDD0F5F03
:1008C0001F4FA016B106A4F7609122017091230179
:1008D00080912401C1DD60912501709126018091F4
:1008E0002701BADD609128017091290180912A01C8
:1008F000B3DD60912B0170912C0180912D01ACDD55
:1009000000E010E0D301E4E9F1E083E001900D9212
:100910008150E1F76D857E858F859EDDD201E1E90D
:10092000F1E083E001900D928150E1F769817A81D5
:100930008B8192DD0F5F1F4F0231110519F7609116
:10094000790170917A0180917B0186DDEE24FF248C
:1009500030C0D201EEE8F1E083E001900D928150C9
:10096000E1F769817A818B8177DDD301EBE8F1E0F2
:1009700083E001900D928150E1F76D857E858F8532
:100980006BDD0F5F1F4F0532110519F7D101E8E844
:10099000F1E083E001900D928150E1F76A857B855B
:1009A0008C855ADD0894E11CF11C85E0E816F10401
:1009B00019F000E010E0CDCF0894A11CB11C86E036
:1009C000A816B10409F0FCCECCDD6091160170913F
:1009D00017018091180140DD6091190170911A0191
:1009E00080911B0139DD609122017091230180917A
:1009F000240132DD6091250170912601809127014B
:100A00002BDD53DD00E010E0A0901C01C0901D0123
:100A1000B0901E01D0901F01E0902001F0902101C4
:100A20006A2D7C2D8B2D18DD6D2D7E2D8F2D14DDE7
:100A30000F5F1F4F0630110599F7DE011496E5E8A8
:100A4000F1E083E001900D928150E1F7DE0117960D
:100A5000E2E8F1E083E001900D928150E1F76C81D2
:100A60007D818E81F9DC6F8178858985F5DC6091E7
:100A70002E0170912F0180913001EEDC60913101E7
:100A80007091320180913301E7DC6C817D818E8130
:100A9000E3DC6F8178858985DFDC60911C017091D2
:100AA0001D0180911E01D8DC60911F017091200111
:100AB00080912101D1DC00E010E09AE0C92ED12C18
:100AC000CC0EDD1E8DE0E82EF12CEC0EFD1ED601C5
:100AD000EFE7F1E083E001900D928150E1F76A8544
:100AE0007B858C85B9DCD701ECE7F1E083E00190F0
:100AF0000D928150E1F76D857E858F85ADDC0F5FAE
:100B00001F4F0431110519F763960FB6F894DEBF35
:100B10000FBECDBFCF91DF911F910F91FF90EF904E
:100B2000DF90CF90BF90AF909F908F907F906F900D
:100B30005F904F903F902F9008952F923F924F9249
:100B40005F926F927F928F929F92AF92BF92CF925D
:100B5000DF92EF92FF920F931F93DF93CF93CDB766
:100B6000DEB766970FB6F894DEBF0FBECDBF00E0CC
:100B700010E080919D018B8B80919E018C8B8091E8
:100B80009F018D8B8091A0018E8B2090A1013090D0
:100B9000A2014090A3015090A4016090A501709023
:100BA000A6018090A7019090A801A090A901B09003
:100BB000AA01C090AB01D090AC01E090AD01F090E3
:100BC000AE016B897C898D8947DC6E89722D832DFE
:100BD00043DCB201862D40DC672D782D892D3CDC6D
:100BE000B5018C2D39DC6D2D7E2D8F2D35DC0F5F01
:100BF0001F4F0330110529F7DE011196EEEBF1E0EE
:100C000083E001900D928150E1F769817A818B81B7
:100C100023DCDE011496EBEBF1E083E001900D9212
:100C20008150E1F76C817D818E8116DCDE011796A3
:100C3000E8EBF1E083E001900D928150E1F76F81E4
:100C40007885898509DCDE011A96E5EBF1E083E021
:100C500001900D928150E1F76A857B858C85FCDBE4
:100C600000E010E05DE0C52ED12CCC0EDD1E40E191
:100C7000E42EF12CEC0EFD1ED601E2EBF1E083E058
:100C800001900D928150E1F76D857E858F85E4DBC3
:100C9000D701EFEAF1E083E001900D928150E1F796
:100CA000688979898A89D8DB0F5F1F4F0D3011055C
:100CB00019F784E08093020166960FB6F894DEBFC0
:100CC0000FBECDBFCF91DF911F910F91FF90EF909D
:100CD000DF90CF90BF90AF909F908F907F906F905C
:100CE0005F904F903F902F9008952F923F924F9298
:100CF0005F926F927F928F929F92AF92BF92CF92AC
:100D0000DF92EF92FF920F931F93DF93CF93CDB7B4
:100D1000DEB7A7970FB6F894DEBF0FBECDBF8ADB54
:100D20007894DE011A96E0E3F2E083E001900D9200
:100D30008150E1F76A857B858C858EDBDE01179615
:100D4000EDE2F2E083E001900D928150E1F76F81D6
:100D50007885898581DBDE011496EAE2F2E083E0A2
:100D600001900D928150E1F76C817D818E8174DB61
:100D700080910201882369F4DE011196E7E2F2E036
:100D800083E001900D928150E1F769817A818B8136
:100D900063DB80910201882369F400E010E003C066
:100DA000CCDE0F5F1F4F8091030190910401081763
:100DB0001907B4F380910201843009F009C16091F0
:100DC000CA017091CB018091CC0146DB6091430157
:100DD00070914401809145013FDB6091C4017091A5
:100DE000C5018091C60138DB609113017091140137
:100DF0008091150131DB6091130170911401809194
:100E000015012ADB60910D0170910E0180910F0197
:100E100023DBDE011196E4E2F2E083E001900D9223
:100E20008150E1F769817A818B8116DB60910A013B
:100E300070910B0180910C010FDBDE011496E1E251
:100E4000F2E083E001900D928150E1F76C817D81A9
:100E50008E8102DB6091C4017091C5018091C60151
:100E6000FBDA609110017091110180911201F4DAA6
:100E70006091C4017091C5018091C601EDDA609165
:100E800013017091140180911501E6DA609113014C
:100E90007091140180911501DFDA60911301709156
:100EA000140180911501D8DADE011796EEE1F2E027
:100EB00083E001900D928150E1F76F8178858985FB
:100EC000CBDA60910A0170910B0180910C01C4DAB8
:100ED000DE011A96EBE1F2E083E001900D92815081
:100EE000E1F76A857B858C85B7DADE011D96E8E13E
:100EF000F2E083E001900D928150E1F76D857E85EF
:100F00008F85AADA6091CA017091CB018091CC01E2
:100F1000A3DA6091430170914401809145019CDA0C
:100F20006091D0017091D1018091D20195DA6091E8
:100F3000D3017091D4018091D5018EDA6091C701FF
:100F40007091C8018091C90187DA60910D0170919B
:100F50000E0180910F0180DA81E090E050DBDE012C
:100F60005096E5E1F2E083E001900D928150E1F7C7
:100F7000688979898A8970DA00E010E076E1C72E05
:100F8000D12CCC0EDD1E63E1E62EF12CEC0EFD1E05
:100F9000D601E2E1F2E083E001900D928150E1F7A9
:100FA0006E897F89888D58DAD701EFE0F2E083E01F
:100FB00001900D928150E1F76B897C898D894CDA23
:100FC0000F5F1F4F0231110519F781E08093020175
:100FD00080910201813041F400E010E0BBDB0F5F43
:100FE0001F4F0B301105D1F780910201823009F0BB
:100FF0003AC1CC24DD248091DC018C8F8091DD010D
:101000008D8F8091DE018E8F8091DF018F8F809197
:10101000E00188A38091E10189A38091E2018AA384
:101020008091E3018BA38091E4018CA38091E50181
:101030008DA38091E6018EA38091E7018FA30BC160
:1010400080914602882369F560915B0170915C0193
:1010500080915D0101DA60915E0170915F01809184
:101060006001FAD960916101709162018091630120
:10107000F3D9609164017091650180916601ECD9AA
:10108000609167017091680180916901E5D9609173
:101090006A0170916B0180916C01DED981E08093CF
:1010A0004602EE24FF248091E801898F8091E901B6
:1010B0008A8F8091EA018B8F2090EB013090EC01B8
:1010C0004090ED015090EE016090EF017090F001C2
:1010D0008090F1019090F201A090F301B090F401A2
:1010E0008CC06C8D7D8D8E8DB7D96F8D78A189A1C7
:1010F000B3D96AA17BA18CA1AFD96DA17EA18FA12B
:10110000ABD9698D7A8D8B8DA7D9B101842DA4D9E6
:10111000652D762D872DA0D9B4018A2D9DD96B2DF3
:101120007091F5018091F60197D96091F701709166
:10113000F8018091F90190D96091FA017091FB0159
:101140008091FC0189D96091FD017091FE0180912F
:10115000FF0182D960910002709101028091020228
:101160007BD960910302709104028091050274D9C9
:101170006091220170912301809124016DD96091C9
:101180002501709126018091270166D90F5F1F4FBD
:101190000530110509F0A5CF60912201709123015E
:1011A0008091240159D96091250170912601809187
:1011B000270152D96091220170912301809124016D
:1011C0004BD960912501709126018091270144D966
:1011D00060911C0170911D0180911E013DD96091AB
:1011E0001F01709120018091210136D90894E11CE2
:1011F000F11C86E0E816F10419F000E010E071CF70
:10120000DE015396ECE0F2E083E001900D92815014
:10121000E1F7DE015696E9E0F2E083E001900D92FD
:101220008150E1F760911C0170911D0180911E01B8
:1012300013D960911F0170912001809121010CD977
:101240006B897C898D8908D96E897F89888D04D9BD
:101250000894C11CD11C8091050190910601C8160B
:10126000D9060CF4EDCE80910201833009F0CCC197
:101270006091C4017091C5018091C601EDD8609163
:101280000D0170910E0180910F01E6D86091C401AB
:101290007091C5018091C601DFD8609113017091F2
:1012A000140180911501D8D860910A0170910B0149
:1012B00080910C01D1D86091C4017091C5018091D9
:1012C000C601CAD860911301709114018091150173
:1012D000C3D8609113017091140180911501BCD89D
:1012E000609110017091110180911201B5D8609147
:1012F000C1017091C2018091C301AED860910D010E
:1013000070910E0180910F01A7D86091D601709164
:10131000D7018091D801A0D86091D3017091D401F8
:101320008091D50199D86091D3017091D4018091B9
:10133000D50192D86091D3017091D4018091D501EB
:101340008BD86091D3017091D4018091D50184D85C
:101350006091C4017091C5018091C6017DD86091F2
:101360000D0170910E0180910F0176D8DE01569625
:10137000E6E0F2E083E001900D928150E1F76E89A2
:101380007F89888D69D86091C4017091C501809171
:10139000C60162D86091D6017091D7018091D801C1
:1013A0005BD860910701709108018091090154D8C0
:1013B0006091D6017091D7018091D8014DD860918C
:1013C0000701709108018091090146D86091D6010A
:1013D0007091D7018091D8013FD860910701709139
:1013E00008018091090138D86091D6017091D70128
:1013F0008091D80131D860910A0170910B018091E0
:101400000C012AD86091C4017091C5018091C60178
:1014100023D860910D0170910E0180910F011CD8AD
:101420006091D6017091D7018091D80115D8609153
:101430000A0170910B0180910C010ED86091D601C8
:101440007091D7018091D80107D860910A017091FD
:101450000B0180910C0100D86091C4017091C5010D
:101460008091C6010E942C0260910A0170910B01CB
:1014700080910C010E942C026091D3017091D401E3
:101480008091D5010E942C026091D0017091D10110
:101490008091D2010E942C026091D3017091D401FD
:1014A0008091D5010E942C026091D3017091D401EA
:1014B0008091D5010E942C026091D3017091D401DA
:1014C0008091D5010E942C026091D3017091D401CA
:1014D0008091D5010E942C026091D3017091D401BA
:1014E0008091D5010E942C026091C4017091C501C8
:1014F0008091C6010E942C0260910D0170910E0135
:1015000080910F010E942C026091C1017091C20173
:101510008091C3010E942C02609110017091110111
:10152000809112010E942C026091C1017091C20150
:101530008091C3010E942C026091100170911101F1
:10154000809112010E942C026091C7017091C80124
:101550008091C9010E942C026091130170911401C5
:10156000809115010E942C0260911001709111016F
:10157000809112010E942C026091C4017091C501FA
:101580008091C6010E942C0260911001709111019E
:10159000809112010E942C0260911301709114013C
:1015A000809115010E942C02609113017091140129
:1015B000809115010E942C02609113017091140119
:1015C000809115010E942C02609113017091140109
:1015D000809115010E942C026091130170911401F9
:1015E000809115010E942C026091130170911401E9
:1015F000809115010E942C026091130170911401D9
:10160000809115010E942C0280E090E0A7960FB611
:10161000F894DEBF0FBECDBFCF91DF911F910F9128
:10162000FF90EF90DF90CF90BF90AF909F908F9002
:101630007F906F905F904F903F902F900895DA01C8
:101640009330B1F0943028F4913041F0923079F534
:101650000AC0913211F1923251F524C0EEEEF0E061
:1016600022E130E028C0E0E0F1E029E230E023C0F0
:10167000813049F0813018F08230C9F40AC0E9E2C3
:10168000F1E0849103C0EDE2F1E08491282F30E095
:1016900012C0EBE4F1E08491F9CFE2E1F1E029E05E
:1016A00030E009C0E8E9F0E026E530E004C0E0E021
:1016B000F0E020E030E0ED93FC93C90108959C0137
:1016C00040915D0250915E024617570718F4F901E8
:1016D00090E03DC06115710511F0AB01F8CF80912C
:1016E000E8008E778093E80040E050E0F0CF8091F2
:1016F0005602882309F441C0853009F440C0809126
:10170000E80083FD3EC08091E80082FD30C08091FA
:10171000E80080FF1CC08091F200282F30E007C055
:1017200081918093F100415050402F5F3F4F411510
:10173000510519F02034310598F390E0203431053B
:1017400009F491E08091E8008E778093E8004115DC
:10175000510569F6992359F60AC0809156028823EB
:1017600061F0853061F08091E80083FD0AC08091CE
:10177000E80082FFF2CF80E0089582E0089583E0E0
:10178000089581E008959C0140915D0250915E02B0
:101790004617570718F4F90190E03EC0611571052E
:1017A00011F0AB01F8CF8091E8008E778093E800CC
:1017B00040E050E0F0CF80915602882309F442C007
:1017C000853009F441C08091E80083FD3FC08091DD
:1017D000E80082FD31C08091E80080FF1DC080914B
:1017E000F200282F30E008C084918093F1003196F8
:1017F000415050402F5F3F4F4115510519F02034A3
:10180000310590F390E02034310509F491E08091A6
:10181000E8008E778093E8004115510561F6992321
:1018200051F60AC080915602882361F0853061F03C
:101830008091E80083FD0AC08091E80082FFF2CF2A
:1018400080E0089582E0089583E0089581E008959E
:10185000BF92CF92DF92EF92FF920F931F93CF939D
:10186000DF93182F092F7B016A01EFD0B82E882350
:10187000B1F5812F902F9C01E901C114D10439F0F9
:10188000F60180819181E81AF90AC80FD91F00E09A
:1018900010E022C08091E80085FD16C08091E8002C
:1018A0008B778093E80064D3C114D10449F0F6012A
:1018B00080819181800F911F9183808385E010C08A
:1018C000C4D0882349F00CC08091F100899308941A
:1018D000E108F1080F5F1F4FE114F104D9F68B2DD9
:1018E000DF91CF911F910F91FF90EF90DF90CF90FC
:1018F000BF900895BF92CF92DF92EF92FF920F9325
:101900001F93CF93DF93182F092F7B016A019DD07E
:10191000B82E8823B1F5812F902F9C01E901C114C5
:10192000D10439F0F60180819181E81AF90AC80FD3
:10193000D91F00E010E022C08091E80085FD16C0AC
:101940008091E8008E778093E80012D3C114D1040F
:1019500049F0F60180819181800F911F91838083EE
:1019600085E010C072D0882349F00CC08991809323
:10197000F1000894E108F1080F5F1F4FE114F10432
:10198000D9F68B2DDF91CF911F910F91FF90EF90A2
:10199000DF90CF90BF900895382F282F2EC0822F30
:1019A0008F708093E900231721F4762F942F50E055
:1019B00006C07091EC009091ED005091F00091FF05
:1019C0001BC08091EB008E7F8093EB008091ED0037
:1019D0008D7F8093ED008091EB0081608093EB0020
:1019E0007093EC009093ED005093F0008091EE0026
:1019F00087FD02C080E008952F5F253080F23F70A0
:101A00003093E90081E008958091570288239CF487
:101A100004C0809156028823B9F08091E80082FFCB
:101A2000F8CF8091E8008B778093E800089580914B
:101A30005602882349F08091E80080FFF8CF80911A
:101A4000E8008E778093E80008954091E40050917B
:101A5000E50024E68091EC0080FF24C08091E8003E
:101A600080FD1EC080915602882311F482E0089503
:101A7000853011F483E008958091EB0085FF02C06A
:101A800081E008958091E4009091E5008417950726
:101A900009F3222311F484E008952150AC01DACF38
:101AA00080E008958091E80082FFDCCFF9CF41D03B
:101AB00043D08091D8008F778093D8008091D80050
:101AC00080688093D8008091D8008F7D8093D80063
:101AD00084E089BD86E089BD09B400FEFDCF109287
:101AE000560210925202109254021092530280E059
:101AF00060E042E351DF8091E1008E7F8093E1005E
:101B00008091E20081608093E2008091E200886031
:101B10008093E2008091E0008E7F8093E000089542
:101B2000E3E6F0E080818E7F808381E08093550240
:101B3000BECF1092E20008951092E10008951F9226
:101B40000F920FB60F9211242F933F934F935F93F1
:101B50006F937F938F939F93AF93BF93EF93FF9375
:101B60008091E10082FF0AC08091E20082FF06C0FE
:101B70008091E1008B7F8093E100F9D18091E100B9
:101B800080FF18C08091E20080FF14C08091E200C5
:101B90008E7F8093E2008091E20080618093E2007A
:101BA0008091D80080628093D80019BC10925602B0
:101BB0000E94D7008091E10084FF30C08091E20054
:101BC00084FF2CC084E089BD86E089BD09B400FE95
:101BD000FDCF8091D8008F7D8093D8008091E10067
:101BE0008F7E8093E1008091E2008F7E8093E200FF
:101BF0008091E20081608093E2008091520288230C
:101C000011F084E007C08091E30087FD02C081E00D
:101C100001C083E0809356020E94D6008091E100CB
:101C200083FF22C08091E20083FF1EC08091E1000B
:101C3000877F8093E10082E08093560210925202E7
:101C40008091E1008E7F8093E1008091E2008E7FA1
:101C50008093E2008091E20080618093E20080E066
:101C600060E042E399DE83D1FF91EF91BF91AF91A4
:101C70009F918F917F916F915F914F913F912F91A4
:101C80000F900FBE0F901F9018951F93DF93CF9367
:101C9000CDB7DEB7AC970FB6F894DEBF0FBECDBFA1
:101CA000E7E5F2E08091F100819322E0EF35F20761
:101CB000C9F70E94D8008091E80083FF40C180915D
:101CC000570230915802353009F48DC0363040F457
:101CD0003130E1F1313070F0333009F030C136C0CD
:101CE000383009F4FDC0393009F40CC1363009F040
:101CF00026C19CC0803821F0823809F020C108C07C
:101D000090915302809154028823B1F0926014C0E4
:101D100080915B028F70853008F011C18093E900DB
:101D20008091EB0090E025E0969587952A95E1F764
:101D3000982F91701092E9008091E800877F80933E
:101D4000E8009093F1001092F100D5C0882319F0BB
:101D5000823009F0F4C090E08F719070009721F00C
:101D6000029709F0ECC00CC080915902813009F053
:101D7000E6C010925402333081F5809354022DC096
:101D800080915902882349F520915B022F70822FA0
:101D90008150843008F0D3C02093E9008091EB009B
:101DA00080FF1BC0333021F48091EB00806213C0B0
:101DB0008091EB0080618093EB0081E090E002C0B5
:101DC000880F991F2A95E2F78093EA001092EA00A3
:101DD0008091EB0088608093EB001092E900809185
:101DE000E800877F8BC0882309F0A9C010915902B1
:101DF0001F778091E3008078812B8093E3008091AE
:101E0000E800877F8093E800FFDD8091E80080FF95
:101E1000FCCF8091E30080688093E300112311F4EC
:101E200082E001C083E08093560289C080588230EE
:101E300008F085C08091590290915A0223E08C3DB0
:101E4000920709F033C083E08C838AE28B837FB7EB
:101E5000F894DE0115966EE040E050E011E2E62FC6
:101E6000F0E010935700849140FF03C082958F707B
:101E70006F5F8F70282F30E08A3018F0C901C79645
:101E800002C0C901C0968D939D934F5F5F4F44314F
:101E9000510529F77FBF8091E800877F8093E80094
:101EA000CE0103966AE270E00ADC14C060915B0226
:101EB00070915C02AE014F5F5F4FC1DBBC010097C8
:101EC00009F43DC08091E800877F8093E800898114
:101ED0009A8159DC8091E8008B778093E8002FC0CD
:101EE000803869F58091E800877F8093E8008091D1
:101EF00052028093F1008091E8008E778093E80091
:101F000083DD1DC08823D9F4909159029230B8F432
:101F10008091E800877F8093E8009093520274DDFF
:101F200080915202882331F48091E30087FD02C042
:101F300081E001C084E0809356020E9410028091EB
:101F4000E80083FF0AC08091E800877F8093E80063
:101F50008091EB0080628093EB00AC960FB6F89412
:101F6000DEBF0FBECDBFCF91DF911F9108950895C1
:101F70001F9380915602882371F01091E90080919F
:101F8000EC001092E9008091E80083FF01C07DDE43
:0E1F90001F701093E9001F910895F894FFCF81
:101F9E000200014A0112000C05000C0A000C14008C
:101FAE000C1E000C28000305000C05000405000C97
:101FBE0005000205000C05000705000C05000705CD
:101FCE00000C05000205000C05000205000C0500C2
:101FDE000205000C05000205000C05000705000CAB
:101FEE0005000C05000005000905000505000C2D77
:101FFE00000705000C46000A05000C460006050009
:10200E000C05000605000C0500107F080C050008E5
:10201E000F000C05000005001014000C0500080F41
:10202E00000C0500080F000C050000050003500011
:10203E000C05000446000C05000128000C0A000CDB
:10204E000500080F000C32000705000C28000705DC
:10205E00001105000705000805000505000605002E
:10206E000005000405000205000305000705000C2D
:10207E000A000005000C05000005000C0500070510
:10208E00000C28000005000C05000705000C41009F
:10209E000705000C28000250000C05000A05000C74
:1020AE000500080F000A0500090500042C010D05A6
:1020BE0000040A00020600018C000732000C050025
:0420CE000F320000CD
:00000001FF
